:1000000098080020150400001104000011040000ED
:1000100011040000110400001104000000000000A1
:1000200000000000000000000000000011040000BB
:10003000110400000000000011040000E9050000A8
:10004000150400001504000015040000150400004C
:100050000000000015040000150400001504000055
:100060001504000015040000150F0000410F0000EA
:10007000E1180000111900004119000015040000EA
:10008000150400001504000015040000150400000C
:100090001504000015040000150400000000000015
:1000A00015040000150400001504000015040000EC
:1000B000150400000000000089040000F5040000A1
:1000C0000000000000000000000000000000000030
:1000D0000000000000000000000000000000000020
:1000E0000000000000000000000000000000000010
:1000F0000000000000000000000000000000000000
:10040000FFFFFFFFFFFFFFFFFFFFFFFFFEFFFFFFFD
:10041000FEE7000008B500230B4A0C499A188A42EF
:1004200004D20B49C95804331160F5E7094B0A4A55
:10043000191D043B934203D200221A600B1CF6E7FD
:1004400000F0EAF908BDC046000000202C0400209E
:100450000C3000003004002098040020024B0521DD
:100460001A680A431A60704710E000E0024B02214C
:100470001A680A431A60704710E000E0014B013827
:100480001860704714E000E0184B70B51D681A68DA
:1004900000242A431A601649E300585CCB185A78A6
:1004A00099781202024309040A43D97809060A43DB
:1004B000100CF02100040906884213D12A4092B2A0
:1004C000002A0FD05E791A79360216439A79DB79C1
:1004D000120416431B061E4304D00020291C021CD4
:1004E000031CB0470134082CD5D170BDA090044046
:1004F0002C040020184B70B51D681A6800242A438C
:100500001A601649E300585CCB185A7899781202A1
:10051000024309040A43D97809060A431049100C1A
:100520000004884213D12A4092B2002A0FD05E798B
:100530001A79360216439A79DB79120416431B06A0
:100540001E4304D00020291C021C031CB0470134A8
:10055000082CD6D170BDC046A0C004402C04002099
:100560000000C0F010B5436901248C40A3434361EF
:1005700043698A40111C1943416110BDF8B5051C3F
:100580000E1C171C00240123A3401E4204D0281C6B
:10059000211C3A1CFFF7E6FF0134202CF3D1F8BDF3
:1005A000D30702D50368194302E003688B43191C83
:1005B0000160704710B50F22040B1440084903096D
:1005C000A4006158DBB29B005B181C680549104011
:1005D00021401960196800020843186010BDC04628
:1005E000802A0000FFF8FFFF024B1A6801321A60F0
:1005F0007047C0466C04002010B5041C00F070FF6A
:100600000F210A1C201C01F03FF8201C052100F0DE
:1006100022FE0221201C00F01DFF0A4B084A201C6C
:1006200000F084FE084A094B0121201C00F098FECE
:10063000201C00F016FE201C00F0A0FF10BDC046DC
:10064000D2F0F0F0F0000000E1F0F0F0F000000077
:10065000802038B50121400400F0F8FA1D4800F070
:10066000B3FB1D4800F0B0FB1C481D4CFFF7A2FF78
:100670001C48FFF79FFF0021201C0A1C01F00EF808
:10068000194D201C0022012101F008F8201C322104
:1006900001F046F82A1C201C002101F01FF800215F
:1006A0000A1C201C01F064F8201C01F02FF8201C0B
:1006B000322101F035F82A1C201C012101F00EF82E
:1006C000201C0121002201F053F8201C01F01EF82B
:1006D00038BDC0468091000004480000B210000000
:1006E00000800340A2100000EE02000038B5064D65
:1006F000064C281C221C002100F0F0FF281C0121C0
:10070000221C00F0EBFF38BD00800340EE02000029
:1007100038B5041C0D1C00F0F9FD0123002807D09A
:10072000201C291C052200F0F6FD0028F8D000232B
:10073000181C38BD38B5027900240223051C045763
:10074000C35651071FD5002B08DDDB434620584315
:100750007E2101F05BF92C4BC2180CE0002B09D074
:10076000013B462040427E21584301F04FF9264983
:10077000421800E0244A2548012100F0AFFF2B7900
:10078000DA070AD52EE0002B02DDDB439620DEE7F8
:10079000002BEFD0013B9620E4E7002C09DD9620EA
:1007A000013C800060437E2101F030F9021C64327C
:1007B00024E0002C14D01648E44360437E2101F06D
:1007C00025F9144B0AE0002C0AD0C820E44340422B
:1007D00060437E2101F01AF9FA239B00C2180DE054
:1007E000094A0BE0002CEEDD9620013C40007E2102
:1007F000604301F00BF9C821490042180348002169
:1008000000F06CFF002038BDEE02000000800340C5
:100810000CFEFFFF1405000010B586B000F03AF89A
:1008200000F0D6F900F0E2FAFA21890001F0A0F810
:10083000FFF724FEFFF71AFEFFF710FE00F0D6FACE
:10084000124901F095F8124C6060FFF701FF02A811
:1008500000F0E6FC02A8FFF7CFFE02A86946FFF70A
:1008600057FF002805D06846FFF764FF2168A160A4
:10087000F3E72268A168531AF02BEED9FFF736FF91
:1008800062680A20504300F09FF9E6E7B80B0000C9
:100890006C040020044B054A196811601A680C2189
:1008A0008A431A607047C046008104407C040020DF
:1008B0000023CA5C002A02D0C2540133F9E7181C95
:1008C0007047F7B5051C01910093561E092B01D8FE
:1008D000041C0CE000980A2101F04AF80199031C5D
:1008E000321C281CFFF7EDFF071C2C1807E0671BC4
:1008F000002E04DD019B013E23700134F7E70098D0
:100900000A2101F079F83031781C2170FEBDF8B56C
:100910000C1CD9175F18051C4F40561E092F12D901
:10092000381C0A21002B03DA01F022F8434202E0CE
:1009300001F01EF8031C281C211C321CFFF7E7FFE6
:10094000041C2D1814E0002B00DA961E2A1CA9198D
:10095000891A002902DD14700132F8E7F443E41724
:1009600034402D19002B03DA2D232B70013401356F
:10097000381C0A2101F040F830312970601CF8BDA4
:10098000F7B5089F1E1C051C013A3B0901D1041C48
:1009900005E00093331CFFF7F3FF2C1806E0601B03
:1009A000002A03DD2170013A0134F8E70F231F40CC
:1009B000092F01D8303704E0002E01D0373700E08E
:1009C000573727700130FEBDF0B5041C85B00F1CF1
:1009D000002801D00021017000251178002905D1DF
:1009E0000023BD426AD22370281C6DE0BD42F7D2BD
:1009F000252902D00132217004E05178252904D143
:100A00002170023201350134E7E7302903D0013289
:100A10000292202101E0023202920022029E3078EE
:100A2000302676423618F6B2092E09D80A267243C5
:100A3000029E8218D2B2303A0136D2B20296EDE767
:100A4000AE18BE4201D97A1BD2B2692818D00BD891
:100A500063282AD0642813D0582833D11E1D1B6860
:100A6000201C009301231DE075280FD0782814D096
:100A7000732827D11968201C1E1DFFF719FF0AE0F3
:100A80001E1D201C1B68FFF742FF04E01E1D201CDA
:100A90001B68FFF716FF331C0BE01E1D1B68201C94
:100AA00000930023FFF76CFFF5E71868043320700C
:100AB0000120029A241801322D188EE7013C237080
:100AC000681E01E00120404205B0F0BD10B50C1CCD
:100AD000131C6421221CFFF777FF10BD10B50E4BCD
:100AE0001B685A7A1C7A120222439C7A24042243FD
:100AF000DC7A2406224391420DD05A7B1C7B1202E1
:100B000022439C7BDB7B240422431B061343994234
:100B100001D00120404210BD0000002070B5051C2E
:100B20000E1C041C2078631B002807D0311CFFF723
:100B3000D5FF031C421C01D00134F3E7181C70BD23
:100B400010B59AB0041C01A8FFF7C0FF632800DDB0
:100B5000FEE701A8211CFFF7E1FF1AB010BD00005D
:100B600010B5094B041C1B680A1C587A197A00023C
:100B70000843997ADB7A09041B0608431843211CB1
:100B8000FFF7DEFF10BDC046000000200FB407B520
:100B900004A908C9181C0191FFF7E2FF03B008BCC3
:100BA00004B0184708B5074B1B68597A1A7A09022E
:100BB00011439A7ADB7A120411431B061943FFF79B
:100BC000ADFF08BD000000200138FDD170470000D6
:100BD000164B802212021A60154B1A681201120974
:100BE0001A601968134A0A401A6019688022520272
:100BF0000A431A60104B3C211A788A430C210A439D
:100C00001A700E4B80221A700D4B02221A700D4B77
:100C1000A02219780A431A700B4B1A78D106FBD41C
:100C200019780C221142FBD17047C04628040020DD
:100C300044800440FFFFF8FF01400640005006409A
:100C4000004006400340064006400640002804D10C
:100C5000514B524A19680A4018E0802149028842E3
:100C600008D14D4B4D4A19680A401A608022196814
:100C700012038EE0CC231B0698420AD1484B032175
:100C80001A688A431A601A6860218A431A601A68CF
:100C900080E0C0231B03984203D13F4B3F4A1968B1
:100CA00049E08022D204904205D13E4B3E4A196869
:100CB0000A401A6015E0A4231B06984208D1394B5C
:100CC00018680143196018683849014019605FE0ED
:100CD00080231B05984203D0C0231B05984203D1F3
:100CE000304B1968314A26E080235B04984205D1D5
:100CF0002C4B2D4A19680A401A601AE0A1231B06E2
:100D000098420DD1274B8022196852020A431A607B
:100D10001968274A0A401A6080221968520438E08C
:100D200080239B04984203D0C0239B04984208D19F
:100D30001C4B19681E4A0A401A601A681043186052
:100D400029E0B0231B06984204D1164B194A1968B2
:100D50000A401FE0184B984205D1124B80221968B7
:100D600052020A4306E0154B984208D10D4B0E4A39
:100D700019680A401A6080221968D20209E01049F5
:100D8000104B0222884203D1196891430A1C01E0EA
:100D900019680A431A60704700700440FFFFF3FFB0
:100DA00008B0034004800440FFFFFEFFFFFFFFF395
:100DB000FFFFFFFCFFFFFBFF0407080000070C001C
:100DC00001070C00008104400304074A9B0F9B00AD
:100DD000D3189B6DC1B2C004C00E1A688140081CB4
:100DE000104318607047C046142B0000284B10B504
:100DF0001A68110606D5274B1868274B1968090F82
:100E000001313BE01A6840210A4209D0234B1B788C
:100E1000DA0739D4204B22481968090F01312DE037
:100E2000204A1078084210D01B4B107819681E4BCE
:100E3000184C1A781F23184024681340090F1830E3
:100E4000013301316043594318E01B68590705D548
:100E5000114B16481968090F01310FE0144B60223D
:100E600019780A40202A03D11B785BB2002B08DBDB
:100E7000094B1968074B090F1868013100F078FD1C
:100E800004E0B720800401E08020000210BDC046CD
:100E900000400640280400204480044001400640F1
:100EA00000093D00054006400440064000D8B80552
:100EB0000340064008B5114B1A68D10102D5FFF76F
:100EC00095FF19E01A680E4B91010BD50D4A802150
:100ED0001078014311701A7804210A431A700A4BE2
:100EE000186809E0094A02201178014311701A7844
:100EF00001210A4306481A7008BDC0460480044018
:100F000001400640005006402804002000400640F2
:100F100000093D0010B5084B40211A781878D2B26C
:100F2000114001431970054B1C68002C03D00020B0
:100F3000011C031CA04710BD036007408004002073
:100F400010B5084B40211A781878D2B211400143ED
:100F50001970054B5C68002C03D00020011C031C99
:100F6000A04710BD0370074080040020F7B5041CA3
:100F7000081C08990092019300F0FAFC0025071C58
:100F800001267600381C311C013500F0F1FC0828E0
:100F9000F7D8013DEDB2A570A37801380001009AA1
:100FA0001843019BC0B21343099AA0701343DBB2EC
:100FB0002370F7BD0378402213430370704710B5C8
:100FC000C378C21C9C06FBD5C9B2417113785BB2D1
:100FD000002BFBDA4079C0B210BDFEE7F8B50C1C5F
:100FE000151C1F1C00F032FC1F20204000F056FC96
:100FF0002C1C061CEA19D2B2E3B29A4205D0FF209B
:1010000000F04CFC20700134F4E700F029FC301CA7
:10101000F8BD10B50C1C00F019FC1F20204000F09A
:101020003DFCFF2000F03AFC041C00F019FC201CE1
:1010300010BDF8B50C1C151C1F1C00F007FC1F2070
:1010400004402020204300F029FC2C1C061CEA1937
:10105000D2B2E3B29A4204D0207800F01FFC0134EF
:10106000F5E700F0FDFB301CF8BD38B5151C0C1C75
:1010700000F0ECFB1F2004402020204300F00EFC79
:10108000041C281C00F00AFC00F0EAFB201C38BD00
:10109000F7B583780E1C151C9A4200D91D1C0279E5
:1010A0000027EDB2BA4201D15B1BDFB200F0CEFBEC
:1010B000612000F0F3FB341C01907219D2B2E3B24C
:1010C0009A4205D0FF2000F0E9FB20700134F4E7DC
:1010D0003C1C002C05D0FF20013C00F0DFFBE4B2FB
:1010E000F7E700F0BDFB0198FEBD10B500F0AEFBC8
:1010F000E22000F0D3FB041C00F0B2FB201C10BD6A
:1011000010B500F0A3FBE12000F0C8FB041C00F0C8
:10111000A7FB201C10BD10B500F098FBFF2000F0CD
:10112000BDFB041C00F09CFB201C10BD1FB5012062
:101130000C0904408A094B0900940C070240034043
:10114000640F0840029001940148FFF71FFD1FBD86
:101150001C2C0000F8B5061C081C141C0D1C1F1CC0
:1011600001F086FC0022072800D809220B48291C20
:10117000FFF70CFDE719FFB2BC420BD0211C301C5D
:10118000FFF747FF651C011CEDB20548FFF7FEFCA9
:101190002C1CF1E70348FFF705FDF8BD8C2C00007F
:1011A000942C00009C2C0000F0B5051C85B0081C98
:1011B000141C0E1C1F1C01F05BFC0022072800D829
:1011C0000922E7191248311CFFB2FFF7DFFC019733
:1011D000019B9C4217D0211C02AA0523281CFFF763
:1011E000FDFE0C48FFF7D2FC661C6F46F6B203AC5E
:1011F0000737BC4205D021780748FFF7C7FC013C00
:10120000F7E7341CE4E70548FFF7CCFC05B0F0BD78
:101210008C2C00009E2C0000972C00009C2C0000C1
:10122000012303702022002343708270C370037176
:101230008371C371037243728372C3720373437306
:10124000704708B50A1C7F2900D97F22D2B2052138
:10125000FFF70BFF08BD0B1C202900D9202383704A
:10126000704710B50021041CFFF7D3FE0322024390
:10127000D2B20021201CFFF7F8FE07217022201CAB
:10128000FFF7F3FEE279A179237A12020A431B04E5
:101290001A43637AA17A1B061A43E37A1B020B43B3
:1012A000217B09040B43617B09060B43134305D0E3
:1012B000A21D201C0A210523FFF7BBFE201CFFF7FF
:1012C00014FF201CFFF71CFF00F0DEFA822000F064
:1012D000F9FA10BDF8B5041C0F1CFFF71CFF4606F9
:1012E000051CF60F10D0002F02D003075B0F3B70D8
:1012F0004022201C0721FFF7B8FE2022154203D010
:10130000201C0721FFF7B1FE301CF8BD08B50021F5
:10131000FFF7E0FF08BD10B5041CFFF7B9FE201C65
:101320001721FFF776FE0123184010BD13B5041CEA
:10133000009201930A216A460523FFF77AFE6A4666
:101340000523201C1021FFF774FEA3781A1C202B04
:1013500000D92022D2B2201C1121FFF786FE13BD36
:1013600073B5041C0D1C0092019300291ED16A461E
:10137000137883716B4601331B78C3716B4602335C
:101380001B7803726B4603331B78437201AB1B78E7
:1013900083726B4605331B78C3726B4606331B782A
:1013A00003736B4607331B78437303E0062922D887
:1013B000012905D1104B201C595D6A46052303E025
:1013C0000D4B6A46595C0123FFF733FE0A4EA278A3
:1013D000B31D595D201CFFF748FE0221201CFFF7BA
:1013E00018FE75192B7B01229A400243D2B2201CB1
:1013F0000221FFF73AFE73BD7C2B000038B50C1CB0
:101400000621051CFFF705FE06239843C2B2032CF4
:1014100009D0022C01D1042305E0012C01D10223C3
:1014200001E0042C00D11A43281C0621FFF71DFE01
:1014300038BD08B50621FFF7ECFD06230340032065
:10144000062B06D00220042B03D0981E434258419D
:10145000C0B208BD70B50E1C0621041CFFF7D9FDF3
:1014600000232370051CD7231D402023022E03D008
:10147000012E02D1267008231D430621201C2A1CA0
:10148000FFF7F3FD201C0621FFF7C3FDA84202D0A1
:101490000020207000E0012070BD08B50621FFF794
:1014A000B8FD282303400220202B04D0181C083844
:1014B00043425841C0B208BD38B50D1C0021041C80
:1014C000FFF7A7FD0C239843C2B2002D03D0012DD6
:1014D00000D108231A43201C0021FFF7C6FD38BDA8
:1014E00010B50821041C1C4800F058F900F0C2F99E
:1014F00000F0B6F9052000F0DBF904214F22201C92
:10150000FFF7B3FD201C0321FFF778FF201C022109
:10151000FFF7A0FF002801D001236370201C0021E9
:10152000FFF798FF201C0221FFF7C6FF201C1C219B
:101530000022FFF79AFD7022201C0721FFF795FD7E
:101540004C21201CFFF77DFE201CFFF7CEFD201C48
:10155000FFF7D6FD10BDC04600127A0008B5002185
:10156000FFF757FD0023020705D504231840434227
:1015700043410222D31A181C08BD000038B5041CD0
:10158000FFF7C9FD011C201CFFF7D0FD201C2F49CF
:101590000A220223FFF708FE201C2D490C220423F7
:1015A000FFF7D8FD201C2B4910220123FFF7FCFD7B
:1015B000201C294911220623FFF7CCFD0122201C03
:1015C000131C2649FFF7C6FD201C254902220123D2
:1015D000FFF7C0FD201C234905220123FFF7BAFDB8
:1015E000201C214906220123FFF7B4FD201C1F49BE
:1015F00000220123FFF7AEFD1C220223201C1C4900
:10160000FFF7A8FD201CFFF748FF1A4D800028189F
:1016100041691948FFF7BAFA637818489B00EB183C
:10162000196AFFF7B3FA201CFFF798FF800028180B
:10163000816A1348FFF7AAFA201CFFF7FAFE800020
:101640002D18696B0F48FFF7A1FA38BDA22C0000D6
:10165000AF2C0000BC2C0000C42C0000CF2C0000DC
:10166000D52C0000DF2C0000E52C0000EE2C000043
:10167000F52C00007C2B0000032D0000152D000030
:10168000242D0000372D000008B50F2309011A4052
:101690000A43D2B20421FFF7E8FC08BD10B5031CD1
:1016A00080248433A402A24202D11C68224302E0B7
:1016B0001C68094A22401A6003682022C90093432B
:1016C0000C310360081803683C22934303600368ED
:1016D00028221343036010BDFFFFFDFF70B5836830
:1016E00086680D1C56430749041C00208E4204D90D
:1016F000101C5843044900F03BF9ED0010352C193B
:10170000206070BD0F27000010270000036818221A
:10171000934303600368082213430360704700008B
:10172000F7B50C1C051CFFF7C5FB211C071C00F0BE
:101730001FF9002601900124211C019800F018F9DE
:101740000A4B011E994202D901366400F4E70020D9
:10175000802C09D8A9602B68381C1E432E6000F02D
:1017600007F9211C00F004F9FEBDC046FFFF000090
:101770000C30C90041180B68086810B53C24A04320
:1017800008600C2083430220824301D1082200E03C
:10179000042213430A6813430B6010BD13B51E489F
:1017A000FFF712FB1D48FFF70FFB1D48FFF70CFB6F
:1017B000FFF71CFB1B4C1C4B0022410801920093BD
:1017C000201C1023FFF7D2FB1848FEF7F3FE184841
:1017D000FEF7F0FE1748FEF7EDFE1748FEF7EAFEAB
:1017E0008021490101221548FEF7C8FE3220FF3052
:1017F000FEF7E0FE8021012209031148FEF7BEFE3C
:10180000201CFFF7D7FBFFF7F1FA0E4900F0B0F804
:101810000D4B186013BDC0460116000002480000C1
:101820000448000000600740404B4C0013110000CA
:10183000F310000003110000C110000040F00F4041
:1018400000F00F40B80B00008804002008B580218C
:10185000024809030022FEF7A3FE08BD00F00F4076
:1018600008B58021024809030122FEF799FE08BD50
:1018700000F00F4008B58021024849010022FEF720
:101880008FFE08BD40F00F4008B580210248490195
:101890000122FEF785FE08BD40F00F4008B5011C8F
:1018A0000248FFF78CFBC0B208BDC046006007408D
:1018B00008B5034B1B685843FFF786F908BDC046BF
:1018C00088040020054BFA2110B58900041C186813
:1018D00000F04EF86043FFF777F910BD8804002050
:1018E00010B5084B19783F239943074B09021B7821
:1018F0001943064B1C68002C03D00020021C031C5B
:10190000A04710BD05A0064004A006408C0400209E
:1019100010B5084B19783F239943074B09021B78F0
:101920001943064B5C68002C03D00020021C031CEA
:10193000A04710BD05B0064004B006408C0400204E
:1019400010B5084B19783F239943074B09021B78C0
:101950001943064B9C68002C03D00020021C031C7A
:10196000A04710BD05C0064004C006408C040020FE
:10197000002934D00123002210B488422CD3012442
:101980002407A14204D2814202D209011B01F8E7D7
:10199000E400A14204D2814202D249005B00F8E790
:1019A000884201D3401A1A434C08A04202D3001BBC
:1019B0005C0822438C08A04202D3001B9C082243EF
:1019C000CC08A04202D3001BDC082243002803D02D
:1019D0001B0901D00909E3E7101C10BC704700285F
:1019E00001D00020C04307B4024802A14018029071
:1019F00003BDC046D90000000029F0D003B5FFF7B1
:101A0000B9FF0EBC4243891A1847C046002941D08D
:101A100010B4041C4C40A44601230022002900D528
:101A20004942002800D5404288422CD30124240793
:101A3000A14204D2814202D209011B01F8E7E4006D
:101A4000A14204D2814202D249005B00F8E78842F9
:101A500001D3401A1A434C08A04202D3001B5C0871
:101A600022438C08A04202D3001B9C082243CC08CE
:101A7000A04202D3001BDC082243002803D01B092C
:101A800001D00909E3E7101C6446002C00D5404250
:101A900010BC7047002806D003DB0020C04340087C
:101AA00001E08020000607B4024802A1401802901D
:101AB00003BDC046190000000029EBD003B5FFF7B5
:101AC000A7FF0EBC4243891A1847C0467047C0465C
:101AD00003685A0003D45B005B08C018704780227B
:101AE00012061343F9E7C046F0B55F464446564632
:101AF0004D46F0B4804683B09346002923D0013987
:101B000001918A4600275246BB18DC0FE418641086
:101B10004346E5005E19301CFFF7DAFF019A814663
:101B2000A24219D0083543465819FFF7D1FFD945CD
:101B300004D9BC4207D0013CA246E4E7013858452D
:101B400002D2671CDFE70026301C03B03CBC904685
:101B50009946A246AB46F0BD5845EAD8F4E7C046E0
:101B6000012809D0022805D0002801D000207047A4
:101B70000248FCE70248FAE70248F8E77D22000045
:101B8000952200008922000030B5244B83B0041C4C
:101B90008D1E002B3CD0281C01A900E000BF031CB7
:101BA000002B20D02A1C0199FFF79EFF051E1DD097
:101BB000FFF78EFF6B68A064012B10D0281D002B4F
:101BC00020DBFFF785FF0023E06423650368002B1B
:101BD0000FDBFFF77DFF2061002003B030BD002345
:101BE00023610520F9E723610920F6E72061092038
:101BF000F3E71B01180FFFF7B3FF2061002805D1A1
:101C00000920EAE70123E0642365DFE70020E4E739
:101C10000348044B1B1ADB100193C3E700000000CC
:101C20002C2E00000C300000036810B5041CDA07ED
:101C300005D49A070FD5483000F07EFC23685A0778
:101C40000FD51A0714D5DA0604D4E8235B00E01890
:101C500000F07EFC10BD483000F06AFC23685A0793
:101C6000EFD4201CD03000F06BFC23681A07EAD4B4
:101C7000A8235B00E01800F067FC2368E3E7C04698
:101C800002680023002A00D01318181C7047C046B1
:101C9000092070477047C04638B5041C0D1C08E089
:101CA0002B6C01206361211C2A1C2369984708289A
:101CB00007D1201C296CFFF767FF0028F0D0FFF741
:101CC0008CF90728FBD10020296CFFF7E3FF281DC2
:101CD00000F018FCF0B54F464646C0B4C368314C1E
:101CE0009846A5448369051C171C0431402202ACA8
:101CF00003A8994600F07AFE0023281C216C029369
:101D0000FFF742FF7B1E9F41061C0937002E14D0AF
:101D1000A36B102163644B46019339430094012067
:101D20002A1C2B1CC047002832D1301CF3239B00F7
:101D30009D440CBC90469946F0BD236CF0226B612B
:101D4000211C52007AA800F051FE291C7AAA2B69A6
:101D5000381C9847889B061C63644B46019300948B
:101D60000120391C2A1C2B1CC047002810D1F0224E
:101D7000201C7AA9520000F039FE082E06D1281C3A
:101D8000216CFFF701FF0927061CBFE7072E01D0D2
:101D90000920CBE70020216CFFF77CFF03A800F0AF
:101DA000B1FBC04634FCFFFF406C704770B5CB6B95
:101DB000F8B00B64041C0E1C01A80431402200F092
:101DC00015FE01235B42009306E0211C6A4623694D
:101DD0009847051E082D08D1201C1099FFF7D4FE46
:101DE0000028F2D0092078B070BD6846FFF71CFFCC
:101DF000062DF7D1201C311CFFF74EFF08B582617C
:101E0000DA6BC1601A64191C0022FFF763FF08BD7A
:101E100038B54369041C0B64C3680D1C002B04D047
:101E20000122FFF757FFFFF7D8F80220211C2A1CD8
:101E300023699847072807D0082803D1201C291CAC
:101E4000FFF72AFFFFF7C9F80020296CFFF722FFF0
:101E5000281D00F057FBC04608B5C368002B05D00D
:101E6000CB6B00220B64FFF735FF08BDFFF79EFF29
:101E7000FBE7C0467047C04608B58368011C002BCD
:101E800001D00120984708BD10B5012908D00029CC
:101E900008D00339C9B20224012901D9201C10BD80
:101EA0000124FBE70224002BF8D10F2AF6D8920078
:101EB00080184268029B00241A60EFE700B585B0E5
:101EC00003AB0A1C009300210023FFF7DDFF0398FA
:101ED00005B000BD10B5012908D0002908D003398C
:101EE000C9B20224012901D9201C10BD0124FBE73D
:101EF0000224002BF8D10F2AF6D8029B92001B680F
:101F0000801843600024EFE700B585B00B1C0392F6
:101F100003AA009200211A1C0023FFF7DBFF05B083
:101F200000BDC04670B5194CD36BA5441364061CA4
:101F30000D1C17A8111D402200F058FD01235B4223
:101F4000169313E016A80C216A46FFF7DDFF16A8CA
:101F5000291CB04700280FD10820694616AA049B07
:101F60009847041E052C08D0092805D068462699F4
:101F7000FFF70AFE0028E5D0092416A8FFF754FE53
:101F8000201C8E239B009D4470BDC046C8FDFFFFF2
:101F9000F0B55F4656464D464446F0B40C1C1D1C39
:101FA000E36C934603221E1D111C1B688BB001407D
:101FB000019107930896002D69D11B0207932523F1
:101FC0006B4409A91D700A70019A022A00D171E0C0
:101FD000236DDB0748D408230021034002910393BB
:101FE000A9463568002D00D127E14A46022A4BD088
:101FF00035887788043601239A465146A26C3B1CEB
:102000008B43D21858460F219046FFF757FF002206
:10201000804506D82A1C53469A4342449042804148
:10202000424201231F407F001D403D43012D43D00C
:10203000002D60D0022D1FD13368590049088A460F
:10204000019900296AD1002A07D0039A002A00D1F9
:1020500089E05146002900D1B1E0002B68DB5346EE
:1020600001339B00F618BCE700220292022D4ADDE4
:10207000FFF70EFE00284CD009200BB03CBC904668
:102080009946A246AB46F0BD77680836B3E7022D05
:102090009ADC25211A0C69441B040A70079309A9CC
:1020A00002230B70FF231A409200B618019A022AED
:1020B00000D08DE7A66B8BE7019B002B3AD1002A5D
:1020C00017D031687368CD0F9A1CD5D0211C5831B8
:1020D0000691013300D1B2E0301DFFF7D1FD06AB10
:1020E000011C2A1C201C009300E000BF002800D027
:1020F000B4E0083675E70199002902D0002A00D023
:1021000088E004366DE7584607A900F0C7FA0028B2
:10211000B2D1029B002B5CD10820AEE758460D21BE
:10212000256AFFF7CBFE854263D03368002B96DA31
:10213000043694E758460D21256AFFF7BFFE854215
:10214000D7D1A36A9E42D4D1301CFFF7C1FC0F2126
:10215000021C5846FFF7D8FE58460021221CFFF704
:10216000D3FE072089E75346002B28D0251C0023E7
:102170005835371D06A904961E1C4B46A0460593EC
:102180002C1C894603E00437554516D02E1C381CFC
:102190000694FFF775FD0022011C4B464046751C56
:1021A00000E000BF0028EED0059A4446B0469146B4
:1021B000049EC24503D03368B8E7049E444658469F
:1021C0000D21FFF77BFE069A20626262A66206205E
:1021D00053E70F215846FFF771FE0E21021C5846A7
:1021E000FFF792FE58460F21234AFFF78DFE072086
:1021F00043E7A16A8E4298D10023E362042323635C
:102200005246331DA26263633368002B21DB012138
:10221000029124E7301CFFF75BFC0436051CA66323
:10222000201C00E000BF002800D125E758460F2100
:102230002A1CFFF769FE07201FE74D4616E75846A0
:102240000D21FFF73BFE2062069A6262A66206201D
:1022500013E7504601308000301876E7071C0D2147
:102260005846FFF72BFE2062022FEDD10699231C62
:102270002C33E1626362E9E70000000008B5002347
:10228000FFF786FE08BDC04608B50123FFF780FEB4
:1022900008BDC04608B50223FFF77AFE08BDC04658
:1022A000F0B5474680B4061CC2B0151C1C1C0129A1
:1022B0004CD0002931D0032908D0042901D1002BAA
:1022C00058D0022042B004BC9046F0BD032BF8D198
:1022D0001504170C2D0CEB19102BF2D803680822EB
:1022E0001A4200D0EFE020AC201C00F02FF9B06BB8
:1022F000FF006D00031CE7196A1E002D07D0391A74
:102300001F68CF500433013AFAD2AD004319B363CA
:10231000201C00F019F90020D4E70220002BD1D1B5
:102320001704B26B3F0C311C00230120041C9C409D
:10233000274202D0146804324C6001330431102B60
:10234000F4D10020AF04BDD4B263BBE71504170C71
:102350002D0C012B2DD0052BB3D1EB19202BB0D890
:102360000F2F00D897E0A846002D00D191E00F2F45
:102370003AD827E0102AA4D8036810221A4200D0C5
:102380008EE020AC201C00F0E5F8B16B00230120AA
:10239000021C9A40154203D00F689A00A7500431DE
:1023A0000133042BF4D1201CB16300F0D1F80020DC
:1023B00088E7EB19102B00D983E70F2F00D980E7AE
:1023C00000218846336801221A420DD0191C91431E
:1023D0000A1C3160052C00D18BE003229343301C92
:1023E0003360483000F0A6F84246002A03D0336834
:1023F00004221A4276D1012C45D00F2F6BD94146C9
:10240000002946D0684600F09DF81023DB1BB56B11
:10241000291C002B10DD5B0020AAF80010181A1CE4
:102420009C46013A2B1C401B1968C1500433013AE9
:10243000FAD26246910069184346002B15D05B0022
:102440009C463B1E102B00D21023181C1038C000D5
:1024500000AD62462818013A0023CD58C550043318
:10246000013AFAD2624695004919012C20D0B16395
:102470000F2F24D94346002B00D14CE7684600F0CB
:102480005FF800201EE720A800F054F84346002B18
:10249000BBD12B1CBBE7102B21D9103B984666E71C
:1024A000E821934349000360401800F053F868E7BF
:1024B000043120A8B16300F03BF8002002E720A817
:1024C00000F03AF8D6E7A8249343640003600019AB
:1024D00000F03CF807E720A800F030F88FE7002272
:1024E00090466FE79343301C3360D03000F02AF8F9
:1024F00081E702231A43301C3260483000F01EF896
:1025000072E7C046011C343138C9043B9C461D604B
:10251000A646011C20313CC990469946A246AB46CE
:10252000011C0831FCC941680068E54600BDC04691
:102530007047C0467047C0467047C0467047C046A7
:102540007047C0467047C0467047C0467047C04697
:102550007047C0467047C04601B401A801B585B0B8
:10256000FFB408A841464A4653465C4665463EC00D
:1025700001A83EC80F98009000230CB401A9FFF7F2
:1025800015FC109B12B0184701B401A801B585B025
:10259000FFB408A841464A4653465C4665463EC0DD
:1025A00001A83EC80F98009000230CB401A9FFF7C2
:1025B0002FFC109B12B0184701B401A801B585B0DB
:1025C000FFB408A841464A4653465C4665463EC0AD
:1025D00001A83EC80F98009000230CB401A9FFF792
:1025E0003BFC109B12B0184701B401A801B585B09F
:1025F000FFB408A841464A4653465C4665463EC07D
:1026000001A83EC80F98009000230CB401ABFFF75F
:10261000F5FB109B12B0184701B401A801B585B0B5
:10262000FFB408A841464A4653465C4665463EC04C
:1026300001A83EC80F98009000230CB401AAFFF730
:1026400071FC109B12B01847027A031C002A04D1B7
:10265000427AB020002A07D17047013A027200681E
:1026600002021A60000EF7E7013A5A725A68111D09
:102670001068032259601A72F2E7C04600B585B0AF
:1026800003AB009300210C220023FFF7FDFB03980E
:1026900005B000BD08B5FFF7F1FF08BDF0B54D4628
:1026A0005F4656464446F0B40F2287B00D1C072300
:1026B0000021061C03917F2790469946281CFFF7AE
:1026C000C3FF041EB02C00D1C8E0031CBB43DBB227
:1026D000002B2AD0031C41468B43DBB2802B00D158
:1026E00081E0902B42D0A02B4FD0B02B62D0C02BDA
:1026F00000D195E0031C49468B43DBB2D02B0BD1B4
:102700000C408022013412032243301C0121052396
:10271000FFF7C6FD0028D1D00924201C07B03CBC1F
:1027200090469946A246AB46F0BD8300FF22134077
:10273000043305AA009200219B469246301C0D22CC
:102740000023FFF7A1FB059963060BD40B1C5B4428
:10275000059352460092301C00210D220023FFF702
:10276000B9FBABE75A468B1A0593F2E70D230340FA
:102770000D2BD1D005AC424602400094301C002104
:102780000023FFF781FB0094E5E7FF231B014A4686
:102790008243191C11410A1C1A40030702D58023E9
:1027A000DB011A43301C00210023FFF779FD0028CC
:1027B000B2D183E7B12865D0B22878D0B32800D150
:1027C000A0E0FC230340B42BA6D04A46144080224C
:1027D000013412032243301C01210123FFF760FD65
:1027E000002899D16AE70402281CFFF72DFF204337
:1027F00080242402A04200D18EE702010005924607
:102800000021020C0023301CFFF74AFD002800D0F5
:1028100082E75346234200D150E7012103914DE75F
:10282000C6287BD0C72800D18CE0031C4A469343BE
:10283000DBB2C02B00D19AE0C82800D19DE0C928A6
:1028400000D069E7281CFFF7FFFE424643460240DE
:102850009843C0B201320003024356E703990024B3
:10286000002900D059E705AD0095301C0E22002349
:10287000FFF70AFB0095301C00210F220023FFF711
:1028800029FB4AE7281CFFF7DFFE021E00D143E7C1
:10289000031C41468B43DBB2002B00D03CE7301CCD
:1028A0000021FFF7FDFC002800D035E706E705AA68
:1028B0000023009200219246301C0D22FFF7E4FA1B
:1028C000281CFFF7C1FE031CBB43DBB20224002B14
:1028D0000DD0059B3840A04018180590281CFFF724
:1028E000B3FE031CBB43DBB20734002BF1D10599C7
:1028F0008122920038408B18A0401C185346059442
:10290000009328E7281CFFF79FFE424641460240FD
:102910008843C3B201321B031A435CE7281CFFF74C
:1029200093FE4346424602409843C3B201321B0322
:102930001A43301C03210323FFF7B2FC002800D008
:10294000EAE6BBE6281CFFF77FFE021E00D1E3E6A5
:10295000031C41468B43DBB2002B00D0DCE6301C6D
:102960000421FFF79DFC002800D0D5E6A6E60C4028
:10297000A022013412032243DBE7281CFFF764FE88
:102980004146021C8A43D2B2103208401203013081
:102990000243BAE610B5C26C84B0546801AB2002A1
:1029A0000190101C0830029003201872D279081C84
:1029B000191C5A72FFF772FE04B010BD08B5FFF77C
:1029C00069FE806C08BDC04608B5FFF763FEC36CA6
:1029D000D8791A1D01308000101808BD08B5FEF71F
:1029E000FCFAC04608B5FEF7F8FAC046F0B50F2A63
:1029F00035D9031C0B439C0735D1161C103E3609F4
:102A00003501451910350C1C031C27681F606768C9
:102A10005F60A7689F60E7681034DF601033AB42E7
:102A2000F3D1731C1B01C518C9180F231340032BC6
:102A30001BD91C1FA4080134A4000023CE58EE505B
:102A40000433A342FAD1ED18C91803231A4005D064
:102A50000023CC5CEC5401339342FAD1F0BD051C49
:102A6000002AF5D1FAE7051CF2E71A1CF8E7C04680
:102A70000023C25C0133002AFBD1581E7047C046B8
:102A80000090044000A0044000B0044000C0044096
:102A900000D0044000F00F40024800002E0000006B
:102AA000C0F00F40104800002F00000000A00640BA
:102AB000010A00001C00000000B00640020A0000ED
:102AC0001D00000000C00640040A00001E000000B7
:102AD000008003408091000021000000009003402E
:102AE000809200002200000000A0034080930000BC
:102AF0002300000000600740011600001A000000DB
:102B000000700740021600001B0000000060064035
:102B10004000000018000000007006408000000027
:102B20001900000000B00340809400001F00000066
:102B300000300740100F000020000000008003401C
:102B4000809100002100000000900340809200006E
:102B50002200000000A0034080930000230000003A
:102B6000000000000000000000000000348004406D
:102B7000388004403C800440408004400A0B0C0D27
:102B80000E0F1112131415160001020304050000A4
:102B9000162C0000102C0000082C0000FF2B000059
:102BA000F52B0000EC2B0000E52B0000DD2B0000D6
:102BB000D62B0000CF2B0000C82B0000C02B00003C
:102BC00050415F48494748004C415F4D45440050E3
:102BD000415F4C4F570050415F4D494E0031362008
:102BE00062697473003820626974730044697361A8
:102BF000626C6564006E524632344C30312B006E8C
:102C0000524632344C3031003235304B4250530052
:102C1000324D42505300314D4250530053544154B1
:102C200055530909203D20307825303278205258FC
:102C30005F44523D25782054585F44533D25782009
:102C40004D41585F52543D25782052585F505F4E99
:102C50004F3D25782054585F46554C4C3D25780D06
:102C60000A004F4253455256455F54583D25303275
:102C7000783A20504F4C535F434E543D25782041C5
:102C800052435F434E543D25780D0A0025730925B4
:102C900063203D0020307825303278000D00203050
:102CA000780052585F414444525F50302D310052F9
:102CB000585F414444525F50322D350054585F41B3
:102CC0004444520052585F50575F50302D360045F3
:102CD0004E5F414100454E5F5258414444520052BC
:102CE000465F43480052465F534554555000434F9A
:102CF0004E4649470044594E50442F46454154558D
:102D000052450044617461205261746509203D2080
:102D100025730D0A004D6F64656C0909203D20255F
:102D2000730D0A00435243204C656E677468092096
:102D30003D2025730D0A00504120506F77657209C0
:082D4000203D2025730D0A005F
:102D480008B10181B0B000840000000008B1018121
:102D5800B0B000840000000008B10181B0B0008468
:102D68000000000008B10181B0B00084000000003C
:102D780008B10181B0B000840000000008B10181F1
:102D8800B0B000840000000072B20181B0AB3080A6
:102D98000000000008B10181B0B00084000000000C
:102DA80008B10181B0B000840000000008B10181C1
:102DB800B0B0008400000000800A0181B0B0ABF020
:102DC8000000000008B10181B0B0008400000000DC
:102DD80008B10181B0B000840000000008B1018191
:102DE800B0B00084000000003F010181B0AB10804A
:102DF8000000000008B10181B0B0008400000000AC
:102E080080060181B0B0ABF00000000008B101817C
:102E1800B0B000840000000008B10181B0B00084A7
:042E280000000000A6
:102E2C00BCD7FF7F01000000C4D7FF7FB0B0A880E3
:102E3C0014D8FF7FA908B180D4D9FF7FB0A8058032
:102E4C0048DAFF7F0100000088E1FF7FAB08B1800A
:102E5C00B6E1FF7FB0B0A880CEE1FF7FAB08B180B8
:102E6C00FEE1FF7FA908B1801CE2FF7FAB07B180B8
:102E7C006EE2FF7FB0B0A880A8E2FF7FA80FB18000
:102E8C00C8E2FF7FAB08B18014E3FF7FB0AB0480D6
:102E9C0084E3FF7F010000009EE3FF7FA0FEFF7F25
:102EAC00AAE3FF7F01000000AEE3FF7FB0B0A88073
:102EBC0018E4FF7FAB08B18048E4FF7F8CFEFF7FF6
:102ECC004AE4FF7FB0B0A88058E4FF7FA803B1802C
:102EDC0084E4FF7FAA03B18018E5FF7FA908B180C5
:102EEC0046E5FF7F70FEFF7F60E5FF7FB0B0AA80F4
:102EFC009EE5FF7F6CFEFF7FB4E5FF7FA908B180E4
:102F0C00D4E5FF7FB0B0A88048E6FF7F60FEFF7F6E
:102F1C0060E6FF7FA908B18064E7FF7F5CFEFF7F5E
:102F2C0070E7FF7F0100000054ECFF7FB0A9028026
:102F3C00ECECFF7FB0B0A8803CEDFF7F01000000FF
:102F4C004CEDFF7FA908B18080EDFF7F38FEFF7F3D
:102F5C004CEEFF7F0100000048EEFF7FAA3F378058
:102F6C0090EEFF7F2CFEFF7F9CEEFF7FA908B180C7
:102F7C00DCEEFF7F28FEFF7FF0EEFF7F01000000FC
:102F8C00ECEEFF7F24FEFF7FF4EEFF7F01000000DC
:102F9C0088EFFF7FAA0DB280ECEFFF7F18FEFF7F5A
:102FAC00D0F2FF7F1CFEFF7FD4F2FF7F20FEFF7F5D
:102FBC00D8F2FF7F24FEFF7FDCF2FF7F28FEFF7F2D
:102FCC0038F5FF7F01000000A8F6FF7F0084048025
:102FDC00B8F6FF7F1CFEFF7FB8F6FF7F20FEFF7F59
:102FEC00A8F9FF7FB0A80380C8F9FF7F1CFEFF7F04
:102FFC00CCF9FF7F20FEFF7FD8F9FF7F0100000096
:10300C00040000200000000000000000010000008F
:10301C0000000000000000000000000000000000A4
:10302C000000000000000000000000000000000094
:10303C000000000000000000000000000000000084
:10304C000000000000000000000000000000000074
:0C342C00000000000000000000127A0008
:00000001FF
